:020000040800F2
:10000000A8040020450100084D1E00084F1E0008EE
:10001000531E0008571E00085B1E00080000000069
:100020000000000000000000000000005F1E00084B
:10003000611E000800000000631E0008651E000825
:100040005F0100085F0100085F0100085F01000810
:100050005F0100085F0100085F0100085F01000800
:100060005F0100085F0100085F0100085F010008F0
:100070005F0100085F0100085F0100085F010008E0
:100080005F0100085F0100085F0100085F010008D0
:100090005F0100085F0100085F0100085F010008C0
:1000A0005F0100085F0100085F0100085F010008B0
:1000B0005F0100085F010008612C00085F01000873
:1000C0005F0100085F0100085F0100085F01000890
:1000D0005F010008671E00085F0100085F0100085B
:1000E0005F0100085F0100085F0100085F01000870
:1000F0005F0100085F0100085F0100085F01000860
:100100005F0100085F0100085F0100085F0100084F
:100110005F0100085F0100085F0100085F0100083F
:100120005F0100085F0100085F0100085F0100082F
:10013000DFF80CD002F01CFE00480047491D000803
:10014000A80400200648804706480047FEE7FEE76F
:10015000FEE7FEE7FEE7FEE7FEE7FEE7FEE7FEE777
:1001600047020008310100080CB500200190009002
:100170006C48006840F480306A49086000BF6948F4
:10018000006800F4003000900198401C0190009835
:1001900018B90198B0F5A06FF1D16248006800F479
:1001A000003010B10120009001E000200090009884
:1001B000012843D15C48006840F010005A490860AB
:1001C0000846006820F0030008600846006840F018
:1001D0000200086053484068524948600846406839
:1001E00048600846406840F48060486008464068BF
:1001F00020F47C1048600846406840F4E8104860ED
:100200000846006840F08070086000BF45480068FC
:1002100000F000700028F9D04248406820F0030048
:10022000404948600846406840F00200486000BF0E
:100230003C48406800F00C000828F9D10CBD10B50E
:10024000FFF792FF10BD10B53648006840F001007E
:1002500034490860084640683449084031494860DC
:1002600008460068324908402E4908600846006880
:1002700020F4802008600846406820F4FE004860B2
:100280004FF41F008860FFF7DAFF4FF00060294944
:10029000086010BD10B5002100200022214B5B68D2
:1002A00003F00C0121B1042906D0082928D107E068
:1002B000214B224C236027E01F4B204C236023E07E
:1002C000184B5B6803F47010164B5B6803F48032C4
:1002D000022303EB904022B9194B4343174C236090
:1002E0000DE0104B5B6803F4003323B1144B434320
:1002F000124C236003E0104B4343104C236003E097
:100300000D4B0E4C236000BF00BF064B5B68C3F370
:1003100003130C4CE15C094B1B68CB40074C23607A
:1003200010BD000000100240002002400000FFF855
:10033000FFFFF6FE08ED00E000127A00000000204A
:1003400000093D000400002031490143314A116099
:10035000704770B5002100230F22C47804B32D4CE0
:10036000246804F4E064C4F5E064210AC1F10403E4
:10037000CA40447804FA03F1847814402143090107
:10038000254C0678A155047804F01F050124AC40E3
:1003900005786D11AD0005F1E025C5F8004109E0D3
:1003A000047804F01F050124AC401C4D067876113A
:1003B00045F8264070BD1A4A0A400243154B1B1FE0
:1003C0001A60704739B1134A121D12680243114B6B
:1003D0001B1D1A6006E00F4A121D126882430D4B66
:1003E0001B1D1A607047042808D14FF0E0210969ED
:1003F00041F004014FF0E022116107E04FF0E021ED
:10040000096921F004014FF0E022116170470000FA
:100410000000FA050CED00E000E400E080E100E0FF
:1004200080FFFF1F10B50446CC48844208D101214B
:10043000042000F02DFB0021042000F029FB46E001
:10044000C748844208D10121082000F021FB002187
:10045000082000F01DFB3AE0C248844208D1012187
:10046000102000F015FB0021102000F011FB2EE001
:10047000BD48844208D10121202000F009FB002161
:10048000202000F005FB22E0B848844208D1012179
:10049000402000F0FDFA0021402000F0F9FA16E0BB
:1004A000B348844208D10121802000F0F1FA0021F4
:1004B000802000F0EDFA0AE0AE48844207D1012125
:1004C000801500F0E5FA0021A01500F0E1FA10BD5A
:1004D00010B50121084600F0DBFA0021012000F0F0
:1004E000D7FA10BD2DE9F041024600250026002074
:1004F00000230024002791F803C00CF00F0591F8A9
:1005000003C00CF0100CBCF1000F03D091F802C036
:100510004CEA050591F800C0BCF1000F31D0146819
:1005200000202BE04FF0010C0CFA00F3B1F800C0F2
:100530000CEA03069E4220D183004FF00F0C0CFA08
:1005400003F7BC4305FA03FC4CEA040491F803C02A
:10055000BCF1280F06D14FF0010C0CFA00FCC2F8D8
:1005600014C00AE091F803C0BCF1480F05D14FF068
:10057000010C0CFA00FCC2F810C0401C0828D1D3B2
:100580001460B1F800C0BCF1FF0F34DD54680020E6
:100590002EE000F1080C4FF0010808FA0CF3B1F856
:1005A00000C00CEA03069E4221D183004FF00F0CDD
:1005B0000CFA03F7BC4305FA03FC4CEA040491F877
:1005C00003C0BCF1280F05D100F1080C08FA0CF8A3
:1005D000C2F8148091F803C0BCF1480F07D100F1B4
:1005E000080C4FF0010808FA0CF8C2F81080401C03
:1005F0000828CED35460BDE8F0814FF6FF7101802A
:10060000022181700421C170704702460020936866
:100610000B400BB1012000E00020704701468868C4
:1006200080B2704702460020D3680B400BB1012016
:1006300000E0002070470146C86880B27047016141
:100640007047416170470AB1016100E04161704744
:10065000C16070474FF480320A43826181618261D8
:1006600082698269704702460020434B18684FF642
:100670008073184040EA021008433F4B18607047EF
:100680003E49C8617047F0B50A46002300240021A6
:10069000002500F00046B6F1004F02D1364EF16958
:1006A00001E0354E7168C0F3034583B200F4401693
:1006B000B6F5401F08D121F070612F4E766826F004
:1006C00070662D4F7E6012E000F48016B6F5801F34
:1006D00006D1032606FA05F4A14341F0706106E055
:1006E000460D360103FA06F6B14341F0706122B1BE
:1006F000460D360103FA06F6314300F00046B6F126
:10070000004F02D11C4EF16101E01B4E7160F0BD43
:1007100030B500228B071C0F0F2303FA04F2164B8F
:1007200008338C1053F824309343134C08348D1045
:1007300044F8253023468C1053F824308C07240FBE
:1007400000FA04F423430C4C08348D1044F825308F
:1007500030BD0A49DC3108607047000000080140E4
:10076000000C01400010014000140140001801403D
:10077000001C014000200140000001400000204218
:10078000DF48006840F00100DD4908600846406825
:10079000DC490840DA49486008460068DA49084000
:1007A000D74908600846006820F4802008600846A1
:1007B000406820F4FE0048604FF41F0088607047D6
:1007C000CF49096821F48031CD4A1160114609688A
:1007D00021F480211160B0F5803F03D0B0F5802F67
:1007E0000ED106E0C649096841F48031C44A11605F
:1007F00007E0C349096841F4A021C14A116000E043
:1008000000BF00BF704710B5014600220023002042
:100810004A11012A02D1BA4C236806E0022A02D109
:10082000B74C236A01E0B64C636A01F01F02012451
:1008300094401C400CB1012000E0002010BD38B5F0
:10084000002000900024002500BF3120FFF7DBFFCF
:1008500005460098401C00900098B0F5A06F01D0AC
:10086000002DF2D03120FFF7CEFF08B1012400E0C7
:100870000024204638BD01460020A14A106820F01F
:10088000F80040EAC10010607047A0490860704756
:10089000024600209A4B586820F47C1042EA01037B
:1008A0001843974B5860704798490866704701464F
:1008B0000020934A506820F00300084350607047BE
:1008C0008F48406800F00C007047014600208C4AB9
:1008D000506820F0F0000843506070470146002047
:1008E000874A506820F4E060084350607047014632
:1008F0000020834A506820F4605040EAC1005060F4
:10090000704729B17E4A527A02437D4B5A7204E005
:100910007B4A527A82437A4B5A7270477B49D8316C
:100920000860704701460020754A506820F4404036
:100930000843506070470021714A20321170704A9C
:1009400082F82010012802D004280AD104E00121F5
:100950006B4A2032117005E00521694A203211707E
:1009600000E000BF00BF70476949086070476449F4
:10097000096A0143624A1162704765494439086057
:10098000704730B500210022002400235C4D6D68C3
:1009900005F00C0121B1042905D0082923D105E077
:1009A0005C4D056022E05B4D05601FE0544D6D68B5
:1009B00005F47012524D6D6805F48034022505EB84
:1009C00092421CB9544D554305600BE04C4D6D6887
:1009D00005F400351DB1504D5543056002E04D4D05
:1009E0005543056002E04B4D056000BF00BF444D1C
:1009F0006D6805F0F0010909484D6B5C0568DD4044
:100A000045603F4D6D6805F4E061090A434D6B5C3C
:100A10004568DD4085603A4D6D6805F46051C90A4E
:100A20003E4D6B5C4568DD40C560354D6D6805F435
:100A30004041890B3A4D6B5CC568B5FBF3F5056128
:100A400030BD29B12E4A526902432D4B5A6104E050
:100A50002B4A526982432A4B5A61704729B1284A6E
:100A600092690243264B9A6104E0254A92698243C7
:100A7000234B9A61704729B1214AD2690243204B26
:100A8000DA6104E01E4AD26982431D4BDA61704785
:100A900029B11B4AD2680243194BDA6004E0184AB4
:100AA000D2688243164BDA60704729B1144A126942
:100AB0000243134B1A6104E0114A12698243104B3E
:100AC0001A61704712494039086070470F49C8647D
:100AD00070470B49C87170470948406A40F0807000
:100AE00007494862704701460020054A92680A405B
:100AF0000AB1012000E00020704701498872704768
:100B0000001002400000FFF8FFFFF6FE0000424226
:100B10008004424200127A0000093D0014000020C7
:100B20002400002010B50446FE48844208D101216B
:100B3000C014FFF7ADFF0021E014FFF7A9FFC4E0E8
:100B4000B4F1804F08D101210846FFF7AEFF002124
:100B50000120FFF7AAFFB8E0F348844208D1012141
:100B60000220FFF7A2FF00210220FFF79EFFACE06A
:100B7000EE48844208D101210420FFF796FF0021AE
:100B80000420FFF792FFA0E0E948844208D1012148
:100B90000820FFF78AFF00210820FFF786FF94E076
:100BA000E448844208D101211020FFF77EFF002194
:100BB0001020FFF77AFF88E0DF48844208D1012146
:100BC0002020FFF772FF00212020FFF76EFF7CE05E
:100BD000DA48844208D101214014FFF759FF00216F
:100BE0006014FFF755FF70E0D548844209D1012118
:100BF000C804FFF74DFF00214FF40020FFF748FF26
:100C000063E0D048844209D101210805FFF740FF85
:100C100000214FF48010FFF73BFF56E0CA488442A2
:100C200009D101214805FFF733FF00214FF40010DF
:100C3000FFF72EFF49E0C548844208D1012140203A
:100C4000FFF733FF00214020FFF72FFF3DE0C048B2
:100C5000844208D101218020FFF727FF0021802056
:100C6000FFF723FF31E0BB48844208D10121801502
:100C7000FFF71BFF0021A015FFF717FF25E0B6487F
:100C8000844209D101210804FFF702FF00214FF43B
:100C90008030FFF7FDFE18E0B048844209D1012101
:100CA0004804FFF7F5FE00214FF40030FFF7F0FE97
:100CB0000BE0AB48844208D101218804FFF7E8FE2D
:100CC00000214FF48020FFF7E3FE10BD00220288D0
:100CD000944B98420ED0994B98420BD0B0F1804F74
:100CE00008D0914B984205D0904B984202D0904B3F
:100CF000984204D14FF68F731A404B881A438D4B9C
:100D0000984207D08C4B984204D04FF6FF431A40CC
:100D1000CB881A4302808B8883850B880385814B9F
:100D200098420BD0854B984208D08B4B984205D007
:100D30008A4B984202D08A4B984201D10B7A0386A3
:100D400001238382704770B5002400220023058CA4
:100D50004FF6FE7635400584028C8388048B4FF66F
:100D60008F752C40B51E2C400D882C43751E2A40D3
:100D70000D892A434D882A436A4DA8420BD06F4DF6
:100D8000A84208D0744DA84205D0744DA84202D0A4
:100D9000734DA84213D14FF6F7752A404D892A4367
:100DA0004FF6FB752A408D882A434FF6FF652B408E
:100DB0004FF6FF552B408D892B43CD892B438380E4
:100DC0000483CD888586028470BD70B5002400221E
:100DD0000023058C4FF6EF7635400584028C83881E
:100DE000048B48F6FF752C404FF6FF452C400D88CC
:100DF0004FF6FF7606EA05252C434FF6DF752A40AD
:100E00000D8906EA05152A434D8806EA05152A4389
:100E1000444DA84202D0494DA8421DD14FF67F75DE
:100E20002A404D894FF6FF7606EA05152A434FF60C
:100E3000BF752A408D8806EA05152A434FF6FF350F
:100E40002B404FF2FF752B408D8906EA85052B4319
:100E5000CD8906EA85052B4383800483CD880587E9
:100E6000028470BD70B5002400220023058C4FF66B
:100E7000FF6635400584028C8388848B4FF68F751E
:100E80002C404FF6FC752C400D882C434FF6FF5537
:100E90002A400D894FF6FF7606EA05252A434D883C
:100EA00006EA05252A431F4DA84202D0234DA84239
:100EB0001DD14FF2FF752A404D894FF6FF7606EAA5
:100EC00005252A434FF6FF352A408D8806EA052579
:100ED0002A434EF6FF752B404DF6FF752B408D894A
:100EE00006EA05152B43CD8906EA05152B438380B9
:100EF0008483CD888587028470BD70B5002200236D
:100F00000024058C4EF6FF7635400584038C8488DA
:100F1000828B48F6FF752A404FF6FF452A400D8820
:100F200020E00000002C01400004004000080040C8
:100F3000000C00400010004000140040003401404C
:100F4000004C014000500140005401400018004096
:100F5000001C0040002000400040014000440140CF
:100F6000004801404FF6FF7606EA05252A434DF674
:100F7000FF752B400D8906EA05352B434D8806EA9F
:100F800005352B43FA4DA84202D0FA4DA84208D1AC
:100F90004BF6FF752C408D894FF6FF7606EA8515D6
:100FA0002C4384808283CD88A0F84050038470BD98
:100FB000828B4FF2FF331A408283828B4FF6FF738E
:100FC00003EA01231A4382837047F0B50C461546A5
:100FD000002200210026078C4EF6FF7C07EA0C0752
:100FE0000784828B018C4FF6FF7707EA043640F6C0
:100FF000FF473A404FF6FF7707EA05273A434FF697
:10100000FF7707EA03373A43D94FB8420ED0D94F9A
:10101000B8420BD0B0F1804F08D0D74FB84205D0BE
:10102000D64FB84202D0D64FB84206D14DF6FF7720
:10103000394046F48057394305E047F6FF573940B9
:1010400044F48057394382830184F0BD828B4FF68C
:10105000F3731A408283828B0A4382837047F0B510
:101060000C461546002200210026078C4FF6FF6C27
:1010700007EA0C070784828B018C4FF6FF7707EA9B
:1010800004264FF60C773A404FF6FF7707EA03172E
:101090002F433A43B64FB8420ED0B64FB8420BD0AA
:1010A000B0F1804F08D0B44FB84205D0B34FB8422A
:1010B00002D0B34FB84206D14FF6FF57394046F43D
:1010C0008077394305E04FF2FF57394044F4807789
:1010D000394382830184F0BD028B4FF2FF331A4003
:1010E0000283028B4FF6FF7303EA01231A43028344
:1010F0007047F0B50C461546002200210026078CEB
:101100004FF6EF7C07EA0C070784028B018C4FF641
:10111000FF7707EA041640F6FF473A404FF6FF779D
:1011200007EA03373A434FF6FF7707EA05273A43C2
:101130008F4FB8420ED08F4FB8420BD0B0F1804FD6
:1011400008D08D4FB84205D08C4FB84202D08C4F9A
:10115000B84206D14FF6DF77394046F010073943E1
:1011600005E04FF65F77394044F0100739430283BA
:101170000184F0BD028B4FF6F3731A400283028B99
:101180000A4302837047F0B50C4615460022002141
:10119000068C4FF6FE773E400684028B018C4FF69C
:1011A0000C7632407E1C06EA03162E433243704E04
:1011B000B0420ED06F4EB0420BD0B0F1804F08D08D
:1011C0006D4EB04205D06D4EB04202D06C4EB04272
:1011D00006D14FF6FD76314044F00106314305E07B
:1011E0004FF6F576314044F0010631430283018425
:1011F000F0BD70B505460C465D4885420ED05D4891
:1012000085420BD0B5F1804F08D05B48854205D0B0
:101210005A48854202D05A48854200D100E000BFBA
:10122000208850B92389A28861882846FFF7ABFF40
:10123000E1882846FFF79EFF25E0208804280AD190
:101240002389A28861882846FFF753FFE188284652
:10125000FFF742FF17E0208808280AD12389A288D7
:1012600061882846FFF7FBFEE1882846FFF7EEFE7F
:1012700009E02389A28861882846FFF7A6FEE18855
:101280002846FFF795FE70BD2DE9F04105460C4656
:1012900000260127608808B9022600E00026A08801
:1012A000012801D1022700E001272088A0B9238965
:1012B000A28861882846FFF766FFE1882846FFF785
:1012C00059FF23893A4631462846FFF712FFE18845
:1012D0002846FFF701FF13E02389A288618828468A
:1012E000FFF707FFE1882846FFF7F6FE23893A4615
:1012F00031462846FFF747FFE1882846FFF73AFFC7
:10130000BDE8F0810A884B881A438B881A43CB8842
:101310001A430B891A434B891A438B891A43A0F845
:10132000442070474FF6FF71818000210180C18009
:101330004180017270470021018041808180C1801D
:10134000018141818181C1817047002101804180FB
:10135000012181800021C18001817047002101802D
:1013600041808180C180018141818181704700007D
:10137000002C0140003401400004004000080040FF
:10138000000C004021B1028842F00102028004E01A
:1013900002884FF6FE731A400280704731B1B0F8F0
:1013A000442042F40042A0F8442005E0B0F8442074
:1013B000C2F30E02A0F8442070471AB183890B4390
:1013C000838102E083898B438381704781827047E8
:1013D00041EA0203A0F8483070471AB183890B43F1
:1013E000838102E083898B438381704701894FF6B3
:1013F000F8721140018170470A46002101894FF6B9
:101400008F73194011430181704730B504460D4672
:1014100029462046FFF7F0FF208940F00700208191
:1014200030BD2DE9F04104460D4616461F46602D9D
:1014300006D13B46012231462046FFF75AFE05E021
:101440003B46012231462046FFF79DFE29462046B5
:10145000FFF7D2FF208940F007002081BDE8F0812E
:1014600030B50C4600210189C9B24FF6FF7505EA77
:101470000325154325432943018130BD2DE9F04162
:1014800005460E4617469846002443463A463146DE
:101490002846FFF7E5FF2C894FF6F870044044F02A
:1014A00007044FF68F70044044F070042C81BDE8AF
:1014B000F081F0B504460D4616461F463B463246BF
:1014C00029462046FFF7CCFF208940F48040208148
:1014D000F0BD0185828270470A46002101884FF6DF
:1014E0008F731940114301807047F0B50C461546C3
:1014F0001E460021002200230189028B038C4FF637
:10150000F877394021434FF6FC473A4040F2011743
:101510003A434FF6DD773B404FF6FF7707EA061771
:101520002F433B43018102830384F0BD0A4600211F
:10153000018B4FF68F7319401143018370470A46A0
:101540000021018B48F6FF7319404FF6FF7303EA41
:1015500002231943018370470A460021818B4FF60D
:101560008F7319401143818370470A460021818B94
:1015700048F6FF7319404FF6FF7303EA022319433D
:101580008183704721B1028842F08002028004E02A
:1015900002884FF67F731A400280704721B182881B
:1015A00042F00402828004E082884FF6FB731A4006
:1015B0008280704721B1828842F00802828004E074
:1015C00082884FF6F7731A408280704721B1828873
:1015D00042F00102828004E082884FF6FE731A40D6
:1015E000828070470A460021018B4FF6F77319403D
:1015F0001143018370470A460021018B4FF2FF73AC
:1016000019404FF6FF7303EA022319430183704721
:101610000A460021818B4FF6F773194011438183ED
:1016200070470A460021818B4FF2FF7319404FF635
:10163000FF7303EA02231943818370470A4600219E
:10164000018B4FF6FB7319401143018370470A4623
:101650000021018B4FF6FF3319404FF6FF7303EA69
:1016600002231943018370470A460021818B4FF6FC
:10167000FB7319401143818370470A460021818B17
:101680004FF6FF3319404FF6FF7303EA0223194365
:10169000818370470A460021018B4FF67F73194002
:1016A0001143018370470A460021018BC1F30E01EB
:1016B0004FF6FF7303EA02231943018370470A467A
:1016C0000021818B4FF67F7319401143818370474E
:1016D0000A460021818BC1F30E014FF6FF7303EA26
:1016E00002231943818370470A460021018C4FF67B
:1016F000FD7319401143018470470A460021018C93
:101700004FF6F77319401143018470470A460021D0
:10171000018C4FF6DF7319404FF6FF7303EA021393
:101720001943018470470A460021018C4FF67F73EC
:1017300019404FF6FF7303EA0213194301847047FF
:101740000A460021018C4FF6FF5319404FF6FF73F4
:1017500003EA02231943018470470A460021018CE1
:101760004FF2FF7319404FF6FF7303EA0223194348
:10177000018470470A460021018C4DF6FF73194021
:101780004FF6FF7303EA023319430184704730B503
:10179000002301248C40A3B2048C9C430484048C59
:1017A00002FA01F5ADB22C43048430BD30B50023FC
:1017B00004248C40A3B2048C9C430484048C02FA5D
:1017C00001F5ADB22C43048430BD70B50346002052
:1017D00000241846183001258D40ACB21D8CA5435D
:1017E0001D8409B1082909D100EB6100056825F0C5
:1017F000700505600568154305600EE00D1FC5F313
:101800004E052844056825F4E045056005684FF657
:10181000FF7606EA02263543056070BD21B10288D5
:1018200042F00202028004E002884FF6FD731A4083
:101830000280704721B1028842F00402028004E075
:1018400002884FF6FB731A400280704721B18288EC
:1018500042F08002828004E082884FF67F731A4053
:101860008280704702884FF6F7731A400280028820
:101870000A430280704782884FF68F731A40828035
:1018800082880A438280704702894FF6F8731A40B3
:10189000028102890A430281704702894FF67F73F1
:1018A0001A40028102890A4302817047818470478D
:1018B00081857047818670470187704781877047AF
:1018C000A0F84010704702884FF6FF431A4002808C
:1018D00002880A43028070470146888E704701469D
:1018E000088F70470146888F70470146B1F8400065
:1018F00070470146888C70470146088D7047024644
:101900000020138A0B400BB1012000E0002070473B
:10191000CA430282704730B50246002000230024EB
:10192000158A05EA0103958905EA010413B10CB192
:10193000012000E0002030BDCA4302827047000051
:1019400010B50446FB48844209D101218803FFF702
:101950009FF800214FF48040FFF79AF832E0F648F4
:10196000844209D101214804FFF79FF800214FF478
:101970000030FFF79AF825E0F048844209D10121B0
:101980008804FFF792F800214FF48020FFF78DF8CC
:1019900018E0EB48844209D10121C804FFF785F81B
:1019A00000214FF40020FFF780F80BE0E548844267
:1019B00008D101210805FFF778F800214FF48010C5
:1019C000FFF773F810BD2DE9F04786B005460E46C7
:1019D0000024A24600BFA1460027B08900B100BF85
:1019E0002F462C8A4CF6FF700440F08804432C826A
:1019F000AC894EF6F3100440B088318908437189F0
:101A000008430443AC81AC8A4FF6FF400440B089E0
:101A10000443AC8201A8FEF7B4FFC648874202D156
:101A2000DDF810A001E0DDF80CA0A88900F400406A
:101A300040B10AEBCA0000EB0A1031684900B0FB64
:101A4000F1F807E00AEBCA0000EB0A1031688900E0
:101A5000B0FBF1F86420B8FBF0F004012009642128
:101A600001FB1089A88900F4004040B1322000EB4E
:101A7000C900B0FBF1F000F00700044308E0322099
:101A800000EB09106421B0FBF1F000F00F000443FB
:101A90002C8106B0BDE8F0874FF41651016000219B
:101AA0008180C18001810C214181002181817047A9
:101AB00010B502460020108A4FF2FF0318400B8831
:101AC0004C8823438C882343CC88234318431082BB
:101AD00010BD0021018041808180C180704721B10B
:101AE000828942F40052828104E082894DF6FF73BC
:101AF0001A4082817047F0B5034600240026002575
:101B0000002040F66A17B94200D100BF1846C1F361
:101B1000421401F01F06012707FA06F5012C01D136
:101B20000C3004E0022C01D1103000E014301AB166
:101B300007682F43076002E00768AF430760F0BD06
:101B40001AB1838A0B43838202E0838A8B438382A8
:101B50007047028A4FF6F0731A400282028A0A43E3
:101B60000282704782894FF2FF731A408281828914
:101B70000A438281704721B1828942F00202828148
:101B800004E082894FF6FD731A4082817047028A11
:101B90004FF6DF731A400282028A0A4302827047BC
:101BA00021B1028A42F48042028204E0028A4BF6AA
:101BB000FF731A4002827047C1F3080282807047A7
:101BC00001468888C0F308007047818941F001010F
:101BD00081817047028BD2B20283028B42EA0122DA
:101BE00002837047028B02F47F420283028B0A4316
:101BF0000283704721B1828A42F02002828204E08F
:101C0000828A4FF6DF731A408282704721B1828A3E
:101C100042F01002828204E0828A4FF6EF731A408B
:101C20008282704721B1828A42F00802828204E0F7
:101C3000828A4FF6F7731A408282704721B18289F7
:101C400042F40042828103E08289C2F30E02828163
:101C5000704721B1828A42F40062828204E0828A63
:101C60004FF2FF731A4082827047828A4FF6FB73ED
:101C70001A408282828A0A438282704721B1828A14
:101C800042F00202828204E0828A4FF6FD731A401B
:101C90008282704702460020B1F5007F00D100BF6C
:101CA00013880B400BB1012000E00020704701F4C5
:101CB0000072B2F5007F00D100BFCA4302807047B6
:101CC00070B50246002400230025002040F66A1665
:101CD000B14200D100BFC1F3421501F01F0301263C
:101CE00006FA03F3012D02D19689334006E0022D56
:101CF00002D1168A334001E0968A33400C12012645
:101D000006FA04F41688344013B10CB1012000E047
:101D1000002070BD10B50022002340F66A14A142D5
:101D200000D100BF0A1201249440A3B2DC43048016
:101D300010BD000000380140004400400048004051
:101D4000004C00400050004000F0B9F800F0EBFB00
:101D500000F0D2FB00F0B8FB00F018FF00F056FBDB
:101D600000F090FE00F0C0FF00BFFEE710B5044693
:101D7000012C01D100F0BAFE022C01D100F0A1FE2D
:101D8000032C01D100F0A4FE0CB900F0B6FE042C27
:101D900001D100F0A4FE10BD10B500F013FC2149E4
:101DA00008700846007828B91FA20321012000F01E
:101DB00071FA22E01B480078012804D11BA20321FC
:101DC00000F068FA19E017480078022805D118A237
:101DD0000321012000F05EFA0FE0124890F90000A4
:101DE000401C28B913A20321012000F053FA04E09B
:101DF00011A20321012000F04DFA10A206210120BA
:101E000000F048FA01230F480B210268184600F041
:101E100081FA10BD0C48006880F400500A4908603F
:101E200070470000280000204D20000052200000D4
:101E3000525200004C2000004C4C00004572726F62
:101E40003A000000600000200C0C0140704700BF09
:101E5000FEE700BFFEE700BFFEE700BFFEE77047FA
:101E600070477047704710B540F225510848FFF79A
:101E700027FF58B10648FFF7A3FE06490860022372
:101E8000084609210268012000F077FA10BD000021
:101E9000003801403400002008B54FF4A060FEF780
:101EA00053FA25208DF8000001208DF801008DF8EF
:101EB00002008DF803006846FEF74BFA08BD00B536
:101EC00085B001210420FEF7C9FD01218803FEF73A
:101ED000C5FD4FF40070ADF8100018208DF8130008
:101EE00003208DF8120004A95348FEF7FBFA4FF4C3
:101EF0008060ADF8100004208DF8130004A94E484E
:101F0000FEF7F0FA4FF4165000900020ADF80400F0
:101F1000ADF80600ADF80800ADF80C000C20ADF8E7
:101F20000A0069464548FFF74EFDFFF7B5FF01225D
:101F300040F225514148FFF7DEFD01213F48FFF700
:101F4000CEFD05B000BD70B504460D4629462046BD
:101F5000FFF732FE00BF80212046FFF79BFE0028DE
:101F6000F9D070BD2DE9F04105460C46260AE7B2CE
:101F700031462846FFF720FE00BF80212846FFF7A4
:101F800089FE0028F9D039462846FFF715FE00BF24
:101F900080212846FFF77EFE0028F9D0BDE8F081B9
:101FA0002DE9F04107460D461646002405E0295D5F
:101FB0003846FFF7C8FF601CC4B2B442F7DB00BF6D
:101FC00040213846FFF766FE0028F9D0BDE8F081D1
:101FD00070B506460C46002500BF615D3046FFF730
:101FE000B2FF681CC5B2605D0028F6D100BF402179
:101FF0003046FFF74FFE0028F9D070BD70B504469B
:102000000D46E1B20D48FFF7D7FD00BF80210B4818
:10201000FFF740FE0028F9D0204670BD10B50446F9
:1020200000BF20210548FFF735FE0028F9D00348FE
:10203000FFF7C6FD10BD0000000801400038014058
:1020400008B501210820FEF709FD14208DF80300D2
:1020500003208DF802004FF48070ADF8000069464F
:10206000FE48FEF73FFA4FF40070ADF800006946F5
:10207000FA48FEF737FA01221102F848FEF7E3FAB0
:1020800001225102F548FEF7DEFA08BD10B5012223
:102090005102F248FEF7D7FA01221102EF48FEF78B
:1020A000D2FA00224FF40071EC48FEF7CCFA00227D
:1020B0004FF48071E948FEF7C6FA10BD10B5002252
:1020C0004FF40071E548FEF7BEFA01221102E34821
:1020D000FEF7B9FA01225102E048FEF7B4FA10BD4A
:1020E00070B50546002415E08020204100EA050275
:1020F0004FF40071D948FEF7A6FA01221102D74821
:10210000FEF7A1FA00224FF48071D448FEF79BFA43
:10211000601CC4B2082CE7DB01221102CF48FEF795
:1021200092FA00224FF48071CC48FEF78CFA70BD11
:1021300010B50446FFF7AAFF7820FFF7D1FF002073
:10214000FFF7CEFF2046FFF7CBFFFFF7B7FF10BD2D
:1021500010B50446FFF79AFF7820FFF7C1FF402033
:10216000FFF7BEFF2046FFF7BBFFFFF7A7FF10BD3D
:1021700070B505460C4645F0B000FFF7D9FF1021B9
:1021800041EA1410FFF7D4FF04F00F00FFF7D0FF6F
:1021900070BD70B500240EE000212046FFF7E8FF77
:1021A000002504E00020FFF7D3FF681CC5B2802D96
:1021B000F8DB601CC4B2082CEEDB70BD2DE9F041E9
:1021C00005460E461746721ED206110E6A1E5206AC
:1021D000100EFFF7CDFF002408E0791EA04A02EBA5
:1021E0000111085DFFF7B4FF601CC4B2082CF4DBDA
:1021F000721ED206110E6A1E012303EB4202D0B2F8
:10220000FFF7B6FF00240AE0791E954A02EB01129F
:1022100004F10801505CFFF79BFF601CC4B2082C5E
:10222000F2DBBDE8F0812DE9F04105460E46174688
:10223000721ED206110E6A1E5206100EFFF798FF8C
:10224000002409E0A7F12001864A02EB0111085D94
:10225000FFF77EFF601CC4B2082CF3DB721ED206AF
:10226000110E6A1E012303EB4202D0B2FFF780FF7A
:1022700000240BE0A7F120017A4A02EB011204F1DD
:102280000801505CFFF764FF601CC4B2082CF1DB4E
:10229000BDE8F0812DE9F04107460E4615460024C1
:1022A00007E02A5D3019C1B23846FFF7BCFF601C59
:1022B000C4B2285D0028F4D1BDE8F08110B5024613
:1022C000012000E050430B1EA1F10101FAD110BD25
:1022D0002DE9F04780460E4617461D46002415E0BE
:1022E000281B411E0A20FFF7E9FFB7FBF0F00A2187
:1022F000B0FBF1F201FB120000F130093019C1B25C
:102300004A464046FFF78FFF601CC4B2AC42E7DB91
:10231000BDE8F0872DE9F0478146884615461E4600
:10232000002D06DB2B2241464846FFF77CFF2F4657
:1023300005E02D2241464846FFF775FF6F42002415
:1023400017E0301B411E0A20FFF7B8FFB7FBF0F083
:102350000A21B0FBF1F201FB120000F1300A08EB98
:102360000400401CC1B252464846FFF75CFF601CA7
:10237000C4B2B442E5DBBDE8F0872DE9F047814601
:102380000E4690461F4600241DE0381B411E1020BB
:10239000FFF794FFB8FBF0F000F00F050A2D08DA04
:1023A00005F13000C2B23019C1B24846FFF73BFF19
:1023B00007E005F13700C2B23019C1B24846FFF755
:1023C00032FF601CC4B2BC42DFDBBDE8F0872DE900
:1023D000F04780460E4617461D46002412E0281B93
:1023E000411E0220FFF76AFFB7FBF0F000F001008A
:1023F00000F130093019C1B24A464046FFF713FFD9
:10240000601CC4B2AC42EADBBDE8F08770B50024C2
:1024100006E0002500E06D1CB5F57A7FFBD3641C57
:10242000B4F57A7FF5D3FFF70BFEAE20FFF780FE01
:10243000D520FFF77DFE8020FFF77AFEA820FFF76A
:1024400077FE3F20FFF774FED320FFF771FE0020D8
:10245000FFF76EFE4020FFF76BFE05E0000C014029
:1024600038000020B22D0008A120FFF761FEC8202F
:10247000FFF75EFEDA20FFF75BFE1220FFF758FE43
:102480008120FFF755FECF20FFF752FED920FFF73E
:102490004FFEF120FFF74CFEDB20FFF749FE302016
:1024A000FFF746FEA420FFF743FEA620FFF740FEFD
:1024B0008D20FFF73DFE1420FFF73AFEAF20FFF717
:1024C00037FEFFF766FE70BD08B510208DF80300DB
:1024D0004002ADF8000003208DF802000121082021
:1024E000FEF7BCFA69461B48FDF7FCFF4FF40051AC
:1024F0001848FEF7A4F808BD08B510208DF80300B1
:102500000420ADF8000003208DF802000121102006
:10251000FEF7A4FA69461048FDF7E4FF04210E48CF
:10252000FEF78DF808BD08B510208DF803000820CF
:10253000ADF8000003208DF8020001211020FEF705
:102540008DFA69460448FDF7CDFF08210248FEF7E1
:1025500076F808BD000C01400010014008B50420C9
:102560008DF8030044F26400ADF8000003208DF8FC
:10257000020001210420FEF771FA01210420FEF778
:102580006DFA01210820FEF769FA01211020FEF7FB
:1025900065FA01211020FEF761FA6946F848FDF757
:1025A000A1FF6946F648FDF79DFF6946F548FDF72E
:1025B00099FF6946F448FDF795FF6946F248FDF733
:1025C00091FF08BD10B54FF48041EE48FEF71DF8AD
:1025D000EE4948702021EA48FEF717F8EB49887069
:1025E0004021E748FEF711F8E849C8702021E64885
:1025F000FEF70BF8E54908700421E348FEF705F8FB
:10260000E249087108460078012813D1084640784D
:1026100001280FD10846807860B90846C0780128A3
:1026200008D108460079012804D10020D849086063
:10263000D8490860D548007898B9D448407801282E
:102640000FD1D248807860B9D048C078012808D12D
:10265000CE480079012804D10020CD490860CD4939
:102660000860CA48007890B9C848407801280ED15F
:10267000C648807858B9C548C078012807D1C348F2
:10268000007920B90020C2490860C2490860BF48EB
:102690000078012812D1BD48407801280ED1BB48EE
:1026A000807801280AD1B948C07838B9B74800798C
:1026B000012803D1B6490860B6490860B3480078DC
:1026C000012812D1B148407801280ED1AF48807856
:1026D00001280AD1AD48C07838B9AC48007920B992
:1026E0000120AB490860AB490860A8480078012880
:1026F00011D1A648407801280DD1A448807850B95E
:10270000A248C07838B9A1480079012803D1A0496E
:102710000860A04908609D480078012811D19B48B5
:10272000407801280DD19948807850B99748C078F1
:1027300038B99648007920B9012095490860954933
:10274000086092480078012814D190484078012808
:1027500010D18E48807801280CD18C48C07801288F
:1027600008D18A48007928B90420894908600220E4
:102770008849086085480078012813D1834840784B
:1027800001280FD18148807801280BD17F48C0787B
:1027900040B97E48007928B904207D4908600220AC
:1027A0007C49086079480078012813D1774840783F
:1027B00001280FD17548807860B97448C078012825
:1027C00008D17248007928B90420714908600220B4
:1027D000704908606D480078012813D16B48407833
:1027E00080B96A48807801280CD16848C0780128EF
:1027F00008D166480079012804D1801E6449086028
:10280000644908606148007898B96048407880B9A8
:102810005E48807801280CD15C48C078012808D136
:102820005A480079012804D1801E59490860594945
:1028300008605648007890B95448407878B95348B1
:10284000807860B95148C078012808D14F48007994
:10285000012804D1801E4E4908604E4908604B484B
:102860000078012812D14948407878B947488078E3
:1028700060B94648C078012808D144480079012849
:1028800004D1801E42490860424908603F480078F0
:1028900090B93E48407878B93C48807860B93B4868
:1028A000C078012808D139480079012804D1801E58
:1028B000374908603749086034480078A8B9334878
:1028C0004078012811D13148807801280DD12F4856
:1028D000C078012809D12D480079012805D1401F71
:1028E0002B49086040102B49086028480078A0B99F
:1028F0002648407888B92548807801280DD123489A
:10290000C078012809D121480079012805D1401F4C
:102910001F49086040101F4908601C480078A0B992
:102920001A484078012810D11848807868B91748AB
:10293000C078012809D115480079012805D1401F28
:10294000134908604010134908601048007898B98E
:102950000E48407880B90D48807868B90B48C07837
:10296000012809D109480079012805D1401F0849EB
:1029700008604010074908600648007840B210BD62
:1029800000080140000C0140001001405B000020E5
:10299000640000206000002010B5FFF7DFFD4FF459
:1029A00080411248FDF731FE18B10420104908702B
:1029B00002E000200E49087020210E48FDF725FE98
:1029C00018B106200C49087002E000200A4908707E
:1029D00040210848FDF719FE18B105200749087085
:1029E00002E000200549087010BD0000000C014005
:1029F0005800002000080140590000205A00002023
:102A00000EB510208DF80B001120ADF80800032042
:102A10008DF80A0001210820FEF720F802A93A48A3
:102A2000FDF760FD02A93948FDF75CFD10208DF827
:102A300007008220ADF8040003208DF80600012174
:102A40001020FEF70BF801A92F48FDF74BFD01A957
:102A50002E48FDF747FD10208DF803004FF4C050BD
:102A6000ADF8000003208DF8020001211020FDF7D1
:102A7000F5FF69462548FDF735FD69462348FDF712
:102A800031FD0EBD10B5FFF7BBFF01211E48FDF75C
:102A9000D6FD10211D48FDF7D2FD02211A48FDF791
:102AA000CEFD80211948FDF7CAFD4FF4006117489B
:102AB000FDF7C5FD4FF480511448FDF7C0FD10BD72
:102AC000704714201249086032201249086070478C
:102AD00032200F49086014200E49086070474B20CF
:102AE0000B49086028200B49086070473D200849C1
:102AF00008603C20074908607047002004490860CE
:102B00000449086070470000000C014000100140BB
:102B10006C0000207000002008B54FF4E060FDF765
:102B200013FC1E208DF8000000208DF8010003200A
:102B30008DF8020001208DF803006846FDF709FCBE
:102B400008BD0EB501210420FDF795FF42F20F707C
:102B5000ADF804004720ADF800000020ADF80600F5
:102B6000ADF802008DF8080069465548FEF7AEF84A
:102B700001215348FEF7CCFE012211465048FEF7D2
:102B80001CFC01214E48FEF7FDFB0EBD10B5FFF702
:102B9000C3FFFFF7D6FF10BD01460020494A506031
:102BA000104601604FF4C870D060002010614FF4EF
:102BB00016605061104640681268801A414A906160
:102BC0001046006A926910443E4A10621046C0687E
:102BD000926950433B4A12693A4B1B6A02FB03005D
:102BE000384A9269374BDB69D21A364B5B6903FB73
:102BF0000200344A906010468069D06110468068B7
:102C000070473148006831490968401A3049086006
:102C1000304800682D49096808442F4908602C484D
:102C20000068B0F5E15F03DD4FF4E150284908602A
:102C300027480068002802DA002025490860264855
:102C40000068B0F5E15F03DD4FF4E1502249086010
:102C500021480068002802DA00201F4908607047F8
:102C600010B501211648FEF756FE18B3FFF7AAFC6F
:102C700003231A48012102680220FFF74BFB0223BD
:102C80001748012102680320FFF744FB144800683D
:102C9000FFF782FF0D490860FFF7B3FF0E48008879
:102CA00081B21048FEF70AFE0948008881B20D483B
:102CB000FEF706FE01210248FEF73EFE10BD0000B1
:102CC00000080040800000202C000020740000203C
:102CD00078000020300000207C00002060000020F0
:102CE000640000200004004000B589B001210220EA
:102CF000FDF7C1FE01210920FDF7B0FE18208DF877
:102D000023000320ADF820008DF8220008A9164802
:102D1000FDF7E8FB0020ADF81A00ADF81600ADF89D
:102D2000140041F61F40ADF8180005A90F48FDF743
:102D3000CDFF6020ADF804000220ADF80C000120AA
:102D4000ADF806004FF4E150ADF80A0001A90748BC
:102D5000FEF788F801A90548FEF7CFF801210348DE
:102D6000FEF710FB09B000BD000C0140000400405C
:102D7000064C074D06E0E06840F0010394E80700C8
:102D800098471034AC42F6D3FDF7D6F9A4330008C7
:102D9000C433000802E008C8121F08C1002AFAD193
:102DA00070477047002001E001C1121F002AFBD1CB
:102DB000704700000000000000000000000000005C
:102DC0000000000000F800000000000000333000A8
:102DD000000000100C06100C0600000000000000AF
:102DE000000040C07840C0784000043F04043F0425
:102DF0000400007088FC08300000001820FF211E2D
:102E00000000F008F000E018000000211C031E2163
:102E10001E0000F00888700000001E2123241927DE
:102E2000211010160E00000000000000000000003D
:102E30000000000000E01804020000000007182055
:102E4000400000020418E0000000004020180700C5
:102E50000000404080F0804040000202010F01026B
:102E60000200000000F0000000000101011F01014C
:102E70000100000000000000000080B070000000B1
:102E8000000000000000000000000001010101013D
:102E900001010000000000000000003030000000D0
:102EA00000000000000080601804006018060100A7
:102EB000000000E010080810E000000F10202010B3
:102EC0000F00001010F8000000000020203F20201C
:102ED00000000070080808887000003028242221B3
:102EE0003000003008888848300000182020201169
:102EF0000E000000C02010F8000000070424243F4A
:102F0000240000F8088888080800001921202011F2
:102F10000E0000E0108888180000000F112020111A
:102F20000E0000380808C83808000000003F000004
:102F300000000070880808887000001C22212122EF
:102F40001C0000E010080810E000000031222211EF
:102F50000F00000000C0C000000000000030300082
:102F60000000000000800000000000008060000001
:102F7000000000008040201008000001020408103A
:102F80002000404040404040400004040404040449
:102F900004000008102040800000002010080402F7
:102FA0000100007048080808F000000000303601F9
:102FB0000000C030C828E810E000071827242314B8
:102FC0000B000000C038E0000000203C2302022774
:102FD000382008F8888888700000203F20202011C1
:102FE0000E00C030080808083800071820202010FC
:102FF000080008F808080810E000203F20202010F2
:103000000F0008F88888E8081000203F20202320BF
:10301000180008F88888E8081000203F2000030006
:103020000000C03008080838000007182020221EC1
:10303000020008F808000008F808203F21010121DB
:103040003F20000808F8080800000020203F20204A
:10305000000000000808F8080800C08080807F0099
:10306000000008F888C028180800203F20012638F2
:10307000200008F8080000000000203F2020202049
:10308000300008F8F800F8F80800203F003F003F43
:10309000200008F830C00008F808203F200007187A
:1030A0003F00E01008080810E0000F10202020105A
:1030B0000F0008F808080808F000203F210101016E
:1030C0000000E01008080810E0000F182424385011
:1030D0004F0008F8888888887000203F2000030C83
:1030E000302000708808080838000038202121228C
:1030F0001C00180808F8080818000000203F2000ED
:10310000000008F808000008F808001F2020202010
:103110001F000878880000C83808000007380E0132
:103120000000F80800F80008F800033C0700073C1E
:103130000300081868808068180820302C03032CCE
:1031400030200838C800C83808000000203F2000A0
:10315000000010080808C838080020382621202060
:103160001800000000FE020202000000007F404044
:103170004000000C30C000000000000000010638D4
:10318000C00000020202FE000000004040407F003C
:103190000000000004020202040000000000000021
:1031A000000000000000000000008080808080801F
:1031B0008080000202040000000000000000000007
:1031C000000000008080808000000019242222225C
:1031D0003F2008F8008080000000003F11202011EF
:1031E0000E000000008080800000000E11202020D2
:1031F0001100000000808088F800000E11202010CF
:103200003F200000808080800000001F22222222B8
:103210001300008080F0888888180020203F20203C
:1032200000000000808080808000006B9494949364
:10323000600008F8008080800000203F210000200E
:103240003F2000809898000000000020203F2020B0
:103250000000000000809898000000C08080807FFF
:10326000000008F8000080808000203F24022D30FC
:103270002000000808F8000000000020203F202067
:1032800000008080808080808000203F20003F20E0
:10329000003F8080008080800000203F21000020CF
:1032A0003F200000808080800000001F2020202020
:1032B0001F00808000808000000080FFA12020117E
:1032C0000E000000008080808000000E112020A0F1
:1032D000FF80808080008080800020203F212000AF
:1032E000010000008080808080000033242424249A
:1032F0001900008080E0808000000000001F202076
:1033000000008080000000808000001F202020102E
:103310003F20808080000080808000010E30080601
:10332000010080800080008080800F300C030C3012
:103330000F0000808000808080000020312E0E3140
:103340002000808080000080808080818E70180640
:10335000010000808080808080000021302C2221AC
:10336000300000000000807C020200000000003FEE
:10337000404000000000FF00000000000000FF00CF
:1033800000000002027C800000000040403F00007E
:103390000000000601010202040400000000000019
:1033A00000000000C433000800000020800000007E
:1033B000942D0008443400088000002028040000F8
:1033C000A42D000800A24A04000000000000000034
:1033D00001020304060708090000000001020304BB
:1033E00001020304060708090204060800000000A1
:1033F0003C0F0000500F000000000000FF7E1C0882
:103400001CF3FFB60000000000000000FCFC7C384C
:1034100000000000000000000000000000000000AC
:10342000000000000000000000000000000000009C
:10343000000000000000000000000000000000008C
:043440000000000088
:0400000508000131BD
:00000001FF
